:100000000C943C000C944E000C944E000C944E004A
:100010000C94F6010C944E000C944E000C944E007F
:100020000C944E000C944E000C944E000C944E0018
:100030000C944E000C944E000C944E000C944E0008
:100040000C944E000C944E000C944E000C944E00F8
:100050000C944E000C944E000C944E000C944E00E8
:100060000C944E000C944E000C944E000C944E00D8
:100070000C944E000C944E0011241FBECFEFCDBF48
:10008000DFE3DEBF24E3A0E0B4E301C01D92A636A7
:10009000B207E1F70E940B020C9436030C940000A7
:1000A000FC018191811101C008959091240895FF70
:1000B000FCCF80932208F5CF4F925F926F927F9290
:1000C0008F929F92AF92BF92CF92DF92EF92FF9268
:1000D0001F93CF93DF93C62F7C01812C912C540169
:1000E000C701D701ED917D01E11509F491C0EE3210
:1000F00039F4FC013196D0E0C12CD12C76012AC014
:10010000AAE0B0E0A50194010E940E034B015C013E
:100110008E2FEE0F990BC097092E000CAA0BBB0B6C
:10012000880E991EAA1EBB1EDBCFAAE0B0E0A70175
:1001300096010E940E036B017C01812F110F990B18
:10014000C097092E000CAA0BBB0BC80ED91EEA1EC5
:10015000FB1EDF5F1191111511F0D43031F7DF5F15
:10016000D53009F04CC0C501B40124E630E040E0D0
:1001700050E00E94EC0229013A019B01AC0160E4CD
:1001800072E48FE090E00E94DC024B015C01A4E687
:10019000B0E0A70196010E940E03680D791D8A1D2B
:1001A0009B1D2CE330E040E050E00E94EC0269012E
:1001B0007A01A301920160E472E48FE090E00E9472
:1001C000DC026C0D7D1D8E1D9F1DCB7FC33539F468
:1001D00090958095709561957F4F8F4F9F4FDF91E0
:1001E000CF911F91FF90EF90DF90CF90BF90AF9095
:1001F0009F908F907F906F905F904F900895AAE0AE
:10020000B0E0A70196010E940E036B017C01A7CF0D
:10021000C12CD12C7601A7CF8F929F92AF92BF9223
:10022000CF92DF92EF92FF920F931F93CF93DF93C2
:10023000CDB7DEB7C05AD109CDBFDEBF8C01C090AB
:100240006034D0906134E0906234F0906334D70130
:10025000C6010196A11DB11D809360349093613455
:10026000A0936234B093633484EF882E99249394DE
:10027000A12CB12C40E950ED63E070E0E0E004C057
:10028000EF3510F4EF5F8C938091240887FF22C034
:10029000AE2FB0E0A050BC4C809120088A3081F78E
:1002A0001C92E11121C054EF850E51E0951EA11C56
:1002B000B11C84E8881681E6980681E0A806B1049E
:1002C000C9F660E070E080E090E0812C912CA12CD8
:1002D000B12C3CC04150504060407040A9F6F0E065
:1002E000E050FC4C1082DFCF47E050E060E776E85A
:1002F00080E094E30E942803892B51F047E050E00E
:1003000068E776E880E094E30E942803892B59F699
:10031000A1E0B4E380E090E02D91211511F09A3036
:10032000A1F589A1813409F0BECF22966FAD229745
:10033000CE01C1960E945C004B015C01A2966FAD9C
:10034000A297CE018F5A9F4F0E945C00F8018082D5
:100350009182A282B3826483758386839783C086E9
:10036000D186E286F386C801C056DF4FCDBFDEBF1F
:10037000DF91CF911F910F91FF90EF90DF90CF9081
:10038000BF90AF909F908F9008952C3211F02A3239
:1003900079F420E1929FF0011124AE014F5F5F4F8D
:1003A000E40FF51FE80FF11D10829F5F80E0B4CFCE
:1003B0008F3008F0B1CF50E1959FF0011124AE01CC
:1003C0004F5F5F4FE40FF51FE80FF11D20838F5F34
:1003D000A3CFFC010C9621913091040835FFFCCF8E
:1003E00020930208E817F907B1F708958F938FB7A4
:1003F0008F939F9381E08093530180916434909117
:100400006534019680936434909365349F918F9105
:100410008FBF8F911895CDB7DEB76897CDBFDEBF80
:1004200088ED84BF81E08093610085E08093E205E0
:1004300025E03DE0209308083093090890EC909364
:10044000060880910004826080930004809100047B
:100450008B7F809300042093280830932908909381
:100460002608809140048460809340048091400479
:100470008D7F8093400480912004816080932004CC
:10048000809124048E7F80932404109247018091F0
:10049000410180FDFCCF81E78093500180915101A3
:1004A00080FDFCCF81E0809352012FEF89E698E137
:1004B000215080409040E1F700C00000CE0101963D
:1004C000082FF92E85E0E82E80E896E80E9450007B
:1004D000CE010D960E940C018FE896E80E94500014
:1004E000809124048E7F809324048FE99FE00197FC
:1004F000F1F700C00000CE010D960E94E9019FEFC8
:1005000024E38CE0915020408040E1F700C00000DF
:100510001EE180E492E4AFE0B0E02091040827FF00
:1005200029C080910008813049F580E896E80E9452
:100530005000802F9F2D0E940C018FE896E80E94AA
:100540005000809124048E7F809324048FE99FE0E3
:100550000197F1F700C00000802F9F2D0E94E90154
:100560009FEF24E38CE0915020408040E1F700C0F1
:10057000000004C00197A040B04079F61A9549F6F2
:10058000809124048160809324048FE99FE0019787
:10059000F1F700C000001092643410926534789432
:1005A00080916434909165348435964008F08CCF06
:1005B000E09250008895F4CFDB018F939F930E94C7
:1005C0000E03BF91AF91A29F800D911DA39F900D2F
:1005D000B29F900D11240895A1E21A2EAA1BBB1BF5
:1005E000FD010DC0AA1FBB1FEE1FFF1FA217B307FF
:1005F000E407F50720F0A21BB30BE40BF50B661F15
:10060000771F881F991F1A9469F7609570958095D8
:1006100090959B01AC01BD01CF0108950E94190383
:10062000A59F900DB49F900DA49F800D911D112446
:100630000895A29FB001B39FC001A39F700D811DBB
:100640001124911DB29F700D811D1124911D0895DB
:10065000FB01DC014150504030F08D910190801938
:1006600019F40020B9F7881B990B0895F894FFCF6F
:1006700024474E524D432C00244750524D432C00EA
:10068000245043415330342C312A31380D0A002490
:0E0690005043415330342C302A31390D0A00CA
:00000001FF
